:0B000E00A0AF988A87C2C0AE8082FFBE
:10045700020F0000020D0000020A0000011100C196
:0704670001C102C103C10045
:1003A10012040F7F1A12034D750C087509087508A0
:1003B100087F207E031204372093147F147E0012DD
:1003C1000437209307120476B202B2973093FD20CE
:0D03D100020312017B3002E012001E80DBEF
:10040F007580FF7590FF75A0FF75B0FF7589117529
:10041F008A3C758CF6758B78758DEC75A88A75B8D6
:04042F0008D28C2241
:040433007F967E0032
:10043700E4FDFCC3ED9FEC9E5015E4FBFA0BBB00FB
:0F044700010AEB643B4A70F50DBD00010C80E427
:010456002283
:03000B000202915D
:10029100C0E0C083C082C0D075D000C002C003C01E
:1002A10004C005C006C007758A3C758CF6E50C9044
:1002B100000E93F580C2A77F017E00120437D2A7FA
:1002C100E50993F580C2A47F01120437D2A4E508A1
:1002D10093F580C2A17F01120437D2A1D007D006C5
:1002E100D005D004D003D002D0D0D082D083D0E0CA
:0102F10032DA
:03001B000203DEFF
:1003DE00C0E0C0D0758B78758DEC0510E5107002FD
:1003EE00050F050EE50E7002050DE510B4700DE556
:1003FE000FB41708750F00751000D201D0D0D0E0E1
:01040E0032BB
:10017B00E4F50CF509F5083090030202051204763C
:10018B00D28EC2B420014230A0033001FAA2A0B338
:10019B0050033001F830A0077F147E001204373073
:1001AB00A002050CE50CB40A05E4F50C0509E509FC
:1001BB00B40A05E4F5090508E508B40A03E4F508F3
:1001CB007F327E0012043780BB30012EC28E20009E
:1001DB0008D2001204761202F2C2B47F287E0012FB
:1001EB000437D2B41204372090DFC20112046FC25D
:0B01FB00007F907E0112043780CF22AD
:10001E00E4F512F50CF509F5083090030200D01244
:10002E000476C2B47F907E01120437E4F51230A03C
:10003E00FD7F287E0012043720A0FD7F287E00124F
:10004E00043730A0FDD28E20A0FD7F647E00120406
:10005E003730A0FDC28EAC0DAD0E7E177F70120232
:10006E00068F11E4F50DF50EEF250BF50BE4350AB1
:10007E00F50AE4F5110512E512C3940140B0850AA4
:10008E000A850B0BAE0AAF0B7C007D0A1202068DA1
:10009E000CAE0AAF0B7C007D0A1202067C007D0AB4
:1000AE001202068D09AE0AAF0B7C007D64120206A9
:1000BE008F08D203E4F50AF50B200006120476121F
:1000CE0002F230031BC2B47F287E00120437D2B472
:1000DE001204372090EC12046F120433C20380E234
:0100EE0022EF
:0E048200D2967F027E00120437C29602043723
:02034D008F130C
:10034F00E4F9120482E513C39400402CE513D3940F
:10035F00095025E5132402FFE433FEE9C39FEE6441
:10036F0080F8748098502AD2957F017E001204374E
:10037F00C2951204370980DBE4F9E9C395135011D4
:10038F00D2957F017E00120437C29512043709807F
:01039F00E974
:0103A000223A
:07046F00E4F50CF509F508A6
:0C0476007F2112034D7F967E00020437A8
:1002F200E5086037FF12034D1204337F0D12034DE0
:10030200120433E5096014E50C6010AF0912034DC5
:100312001204337F0C12034D120433E509700CE50D
:100322000C6008E4FF12034D120433E5087013E574
:1003320009600FFF12034D1204337F0C12034D129A
:0B0342000433E50C6004FF12034D22A1
:030000000200EF0C
:0C00EF00787FE4F6D8FD75812002013610
:10020600C2D5EC30E709B2D5E4C39DFDE49CFCEE13
:1002160030E715B2D5E4C39FFFE49EFE12023CC34D
:10022600E49DFDE49CFC800312023C30D507C3E448
:060236009FFFE49EFE2282
:1000FB000203A1E493A3F8E493A34003F68001F277
:10010B0008DFF48029E493A3F85407240CC8C33305
:10011B00C4540F4420C8834004F456800146F6DFD4
:10012B00E4800B0102040810204080900457E47E09
:10013B00019360BCA3FF543F30E509541FFEE493C9
:10014B00A360010ECF54C025E060A840B8E493A390
:10015B00FAE493A3F8E493A3C8C582C8CAC583CABB
:10016B00F0A3C8C582C8CAC583CADFE9DEE780BE73
:01046E00008D
:10023C00BC000BBE0029EF8DF084FFADF022E4CCA6
:10024C00F875F008EF2FFFEE33FEEC33FCEE9DEC6F
:10025C00984005FCEE9DFE0FD5F0E9E4CEFD22EDB5
:10026C00F8F5F0EE8420D21CFEADF075F008EF2FFF
:10027C00FFED33FD4007985006D5F0F222C398FDF0
:05028C000FD5F0EA228D
:00000001FF
